{
  "_format": "hh-sol-artifact-1",
  "contractName": "WavePortal",
  "sourceName": "contracts/WavePortal.sol",
  "abi": [
    {
      "inputs": [],
      "stateMutability": "payable",
      "type": "constructor"
    },
    {
      "anonymous": false,
      "inputs": [
        {
          "indexed": true,
          "internalType": "address",
          "name": "from",
          "type": "address"
        },
        {
          "indexed": false,
          "internalType": "uint256",
          "name": "timestamp",
          "type": "uint256"
        },
        {
          "indexed": false,
          "internalType": "string",
          "name": "message",
          "type": "string"
        }
      ],
      "name": "NewWave",
      "type": "event"
    },
    {
      "inputs": [],
      "name": "getAllWaves",
      "outputs": [
        {
          "components": [
            {
              "internalType": "address",
              "name": "waver",
              "type": "address"
            },
            {
              "internalType": "string",
              "name": "message",
              "type": "string"
            },
            {
              "internalType": "uint256",
              "name": "timestamp",
              "type": "uint256"
            }
          ],
          "internalType": "struct WavePortal.Wave[]",
          "name": "",
          "type": "tuple[]"
        }
      ],
      "stateMutability": "view",
      "type": "function"
    },
    {
      "inputs": [],
      "name": "getTotalWaves",
      "outputs": [
        {
          "internalType": "uint256",
          "name": "",
          "type": "uint256"
        }
      ],
      "stateMutability": "view",
      "type": "function"
    },
    {
      "inputs": [
        {
          "internalType": "address",
          "name": "",
          "type": "address"
        }
      ],
      "name": "lastWaveAt",
      "outputs": [
        {
          "internalType": "uint256",
          "name": "",
          "type": "uint256"
        }
      ],
      "stateMutability": "view",
      "type": "function"
    },
    {
      "inputs": [
        {
          "internalType": "string",
          "name": "_message",
          "type": "string"
        }
      ],
      "name": "wave",
      "outputs": [],
      "stateMutability": "nonpayable",
      "type": "function"
    }
  ],
  "bytecode": "0x60806040526200004f6040518060400160405280601981526020017f57652068617665206265656e20636f6e737472756374656421000000000000008152506200007760201b620006be1760201c565b606444426200005f9190620001c4565b6200006b919062000261565b60018190555062000308565b62000117816040516024016200008e919062000184565b6040516020818303038152906040527f41304fac000000000000000000000000000000000000000000000000000000007bffffffffffffffffffffffffffffffffffffffffffffffffffffffff19166020820180517bffffffffffffffffffffffffffffffffffffffffffffffffffffffff83818316178352505050506200011a60201b60201c565b50565b60008151905060006a636f6e736f6c652e6c6f679050602083016000808483855afa5050505050565b60006200015082620001a8565b6200015c8185620001b3565b93506200016e8185602086016200022b565b6200017981620002f7565b840191505092915050565b60006020820190508181036000830152620001a0818462000143565b905092915050565b600081519050919050565b600082825260208201905092915050565b6000620001d18262000221565b9150620001de8362000221565b9250827fffffffffffffffffffffffffffffffffffffffffffffffffffffffffffffffff0382111562000216576200021562000299565b5b828201905092915050565b6000819050919050565b60005b838110156200024b5780820151818401526020810190506200022e565b838111156200025b576000848401525b50505050565b60006200026e8262000221565b91506200027b8362000221565b9250826200028e576200028d620002c8565b5b828206905092915050565b7f4e487b7100000000000000000000000000000000000000000000000000000000600052601160045260246000fd5b7f4e487b7100000000000000000000000000000000000000000000000000000000600052601260045260246000fd5b6000601f19601f8301169050919050565b6111cc80620003186000396000f3fe608060405234801561001057600080fd5b506004361061004c5760003560e01c8063449d46c0146100515780639a2cdc081461006d578063bd43a9081461008b578063cb199503146100a9575b600080fd5b61006b60048036038101906100669190610a01565b6100d9565b005b61007561050a565b6040516100829190610d6e565b60405180910390f35b610093610555565b6040516100a09190610c6a565b60405180910390f35b6100c360048036038101906100be91906109d8565b6106a6565b6040516100d09190610d6e565b60405180910390f35b42601e600360003373ffffffffffffffffffffffffffffffffffffffff1673ffffffffffffffffffffffffffffffffffffffff168152602001908152602001600020546101269190610e80565b10610166576040517f08c379a000000000000000000000000000000000000000000000000000000000815260040161015d90610d2e565b60405180910390fd5b42600360003373ffffffffffffffffffffffffffffffffffffffff1673ffffffffffffffffffffffffffffffffffffffff1681526020019081526020016000208190555060016000808282546101bc9190610e80565b925050819055506102026040518060400160405280600d81526020017f257320686173207761766564210000000000000000000000000000000000000081525033610757565b600260405180606001604052803373ffffffffffffffffffffffffffffffffffffffff16815260200183815260200142815250908060018154018082558091505060019003906000526020600020906003020160009091909190915060008201518160000160006101000a81548173ffffffffffffffffffffffffffffffffffffffff021916908373ffffffffffffffffffffffffffffffffffffffff16021790555060208201518160010190805190602001906102c19291906108b8565b50604082015181600201555050606442446102dc9190610e80565b6102e69190610fb7565b60018190555061032d6040518060400160405280601681526020017f52616e646f6d20232067656e6572617465643a202564000000000000000000008152506001546107f3565b601460015411610477576103766040518060400160405280600781526020017f257320776f6e210000000000000000000000000000000000000000000000000081525033610757565b6000655af3107a40009050478111156103c4576040517f08c379a00000000000000000000000000000000000000000000000000000000081526004016103bb90610d0e565b60405180910390fd5b60003373ffffffffffffffffffffffffffffffffffffffff16826040516103ea90610c55565b60006040518083038185875af1925050503d8060008114610427576040519150601f19603f3d011682016040523d82523d6000602084013e61042c565b606091505b5050905080610470576040517f08c379a000000000000000000000000000000000000000000000000000000000815260040161046790610d4e565b60405180910390fd5b50506104b7565b6104b66040518060400160405280600f81526020017f257320646964206e6f742077696e2e000000000000000000000000000000000081525033610757565b5b3373ffffffffffffffffffffffffffffffffffffffff167f5f7e16dc676677766a70e9c5628aa6c54ddb8b6e5188e2ae1e1f17f1ffbea71642836040516104ff929190610d89565b60405180910390a250565b600061054d6040518060400160405280601681526020017f5765206861766520256420746f74616c207761766573000000000000000000008152506000546107f3565b600054905090565b60606002805480602002602001604051908101604052809291908181526020016000905b8282101561069d57838290600052602060002090600302016040518060600160405290816000820160009054906101000a900473ffffffffffffffffffffffffffffffffffffffff1673ffffffffffffffffffffffffffffffffffffffff1673ffffffffffffffffffffffffffffffffffffffff16815260200160018201805461060290610f54565b80601f016020809104026020016040519081016040528092919081815260200182805461062e90610f54565b801561067b5780601f106106505761010080835404028352916020019161067b565b820191906000526020600020905b81548152906001019060200180831161065e57829003601f168201915b5050505050815260200160028201548152505081526020019060010190610579565b50505050905090565b60036020528060005260406000206000915090505481565b610754816040516024016106d29190610c8c565b6040516020818303038152906040527f41304fac000000000000000000000000000000000000000000000000000000007bffffffffffffffffffffffffffffffffffffffffffffffffffffffff19166020820180517bffffffffffffffffffffffffffffffffffffffffffffffffffffffff838183161783525050505061088f565b50565b6107ef828260405160240161076d929190610cae565b6040516020818303038152906040527f319af333000000000000000000000000000000000000000000000000000000007bffffffffffffffffffffffffffffffffffffffffffffffffffffffff19166020820180517bffffffffffffffffffffffffffffffffffffffffffffffffffffffff838183161783525050505061088f565b5050565b61088b8282604051602401610809929190610cde565b6040516020818303038152906040527f9710a9d0000000000000000000000000000000000000000000000000000000007bffffffffffffffffffffffffffffffffffffffffffffffffffffffff19166020820180517bffffffffffffffffffffffffffffffffffffffffffffffffffffffff838183161783525050505061088f565b5050565b60008151905060006a636f6e736f6c652e6c6f679050602083016000808483855afa5050505050565b8280546108c490610f54565b90600052602060002090601f0160209004810192826108e6576000855561092d565b82601f106108ff57805160ff191683800117855561092d565b8280016001018555821561092d579182015b8281111561092c578251825591602001919060010190610911565b5b50905061093a919061093e565b5090565b5b8082111561095757600081600090555060010161093f565b5090565b600061096e61096984610dde565b610db9565b90508281526020810184848401111561098657600080fd5b610991848285610f12565b509392505050565b6000813590506109a88161117f565b92915050565b600082601f8301126109bf57600080fd5b81356109cf84826020860161095b565b91505092915050565b6000602082840312156109ea57600080fd5b60006109f884828501610999565b91505092915050565b600060208284031215610a1357600080fd5b600082013567ffffffffffffffff811115610a2d57600080fd5b610a39848285016109ae565b91505092915050565b6000610a4e8383610be7565b905092915050565b610a5f81610ed6565b82525050565b610a6e81610ed6565b82525050565b6000610a7f82610e1f565b610a898185610e42565b935083602082028501610a9b85610e0f565b8060005b85811015610ad75784840389528151610ab88582610a42565b9450610ac383610e35565b925060208a01995050600181019050610a9f565b50829750879550505050505092915050565b6000610af482610e2a565b610afe8185610e5e565b9350610b0e818560208601610f21565b610b17816110a4565b840191505092915050565b6000610b2d82610e2a565b610b378185610e6f565b9350610b47818560208601610f21565b610b50816110a4565b840191505092915050565b6000610b68603483610e6f565b9150610b73826110b5565b604082019050919050565b6000610b8b600f83610e6f565b9150610b9682611104565b602082019050919050565b6000610bae602783610e6f565b9150610bb98261112d565b604082019050919050565b6000610bd1600083610e53565b9150610bdc8261117c565b600082019050919050565b6000606083016000830151610bff6000860182610a56565b5060208301518482036020860152610c178282610ae9565b9150506040830151610c2c6040860182610c37565b508091505092915050565b610c4081610f08565b82525050565b610c4f81610f08565b82525050565b6000610c6082610bc4565b9150819050919050565b60006020820190508181036000830152610c848184610a74565b905092915050565b60006020820190508181036000830152610ca68184610b22565b905092915050565b60006040820190508181036000830152610cc88185610b22565b9050610cd76020830184610a65565b9392505050565b60006040820190508181036000830152610cf88185610b22565b9050610d076020830184610c46565b9392505050565b60006020820190508181036000830152610d2781610b5b565b9050919050565b60006020820190508181036000830152610d4781610b7e565b9050919050565b60006020820190508181036000830152610d6781610ba1565b9050919050565b6000602082019050610d836000830184610c46565b92915050565b6000604082019050610d9e6000830185610c46565b8181036020830152610db08184610b22565b90509392505050565b6000610dc3610dd4565b9050610dcf8282610f86565b919050565b6000604051905090565b600067ffffffffffffffff821115610df957610df8611075565b5b610e02826110a4565b9050602081019050919050565b6000819050602082019050919050565b600081519050919050565b600081519050919050565b6000602082019050919050565b600082825260208201905092915050565b600081905092915050565b600082825260208201905092915050565b600082825260208201905092915050565b6000610e8b82610f08565b9150610e9683610f08565b9250827fffffffffffffffffffffffffffffffffffffffffffffffffffffffffffffffff03821115610ecb57610eca610fe8565b5b828201905092915050565b6000610ee182610ee8565b9050919050565b600073ffffffffffffffffffffffffffffffffffffffff82169050919050565b6000819050919050565b82818337600083830152505050565b60005b83811015610f3f578082015181840152602081019050610f24565b83811115610f4e576000848401525b50505050565b60006002820490506001821680610f6c57607f821691505b60208210811415610f8057610f7f611046565b5b50919050565b610f8f826110a4565b810181811067ffffffffffffffff82111715610fae57610fad611075565b5b80604052505050565b6000610fc282610f08565b9150610fcd83610f08565b925082610fdd57610fdc611017565b5b828206905092915050565b7f4e487b7100000000000000000000000000000000000000000000000000000000600052601160045260246000fd5b7f4e487b7100000000000000000000000000000000000000000000000000000000600052601260045260246000fd5b7f4e487b7100000000000000000000000000000000000000000000000000000000600052602260045260246000fd5b7f4e487b7100000000000000000000000000000000000000000000000000000000600052604160045260246000fd5b6000601f19601f8301169050919050565b7f547279696e6720746f207769746864726177206d6f7265206d6f6e657920746860008201527f616e2074686520636f6e7472616374206861732e000000000000000000000000602082015250565b7f57616974203330207365636f6e64730000000000000000000000000000000000600082015250565b7f4661696c656420746f207769746864726177206d6f6e65792066726f6d20636f60008201527f6e74726163742e00000000000000000000000000000000000000000000000000602082015250565b50565b61118881610ed6565b811461119357600080fd5b5056fea26469706673582212205b004e14f2be2b4961a62d48c84627398fcfd63bb916d4622384532aa1d4b4ff64736f6c63430008040033",
  "linkReferences": {},
  "deployedLinkReferences": {}
}